{
  "contractName": "MedicineContract",
  "abi": [
    {
      "inputs": [
        {
          "internalType": "uint256",
          "name": "_medicineId",
          "type": "uint256"
        },
        {
          "internalType": "string",
          "name": "_medicineName",
          "type": "string"
        },
        {
          "internalType": "string",
          "name": "_manufacturingCompany",
          "type": "string"
        },
        {
          "internalType": "string",
          "name": "_manufacturingPlace",
          "type": "string"
        },
        {
          "internalType": "uint256",
          "name": "_expiryDate",
          "type": "uint256"
        },
        {
          "internalType": "string",
          "name": "_precautions",
          "type": "string"
        },
        {
          "internalType": "string",
          "name": "_chemicalComosition",
          "type": "string"
        }
      ],
      "name": "addMedicineInfo",
      "outputs": [],
      "stateMutability": "nonpayable",
      "type": "function"
    },
    {
      "inputs": [
        {
          "internalType": "uint256",
          "name": "_medicineId",
          "type": "uint256"
        }
      ],
      "name": "getMedicineInfo",
      "outputs": [
        {
          "internalType": "string",
          "name": "medicineName",
          "type": "string"
        },
        {
          "internalType": "string",
          "name": "manufacturingCompany",
          "type": "string"
        },
        {
          "internalType": "string",
          "name": "manufacturingPlace",
          "type": "string"
        },
        {
          "internalType": "uint256",
          "name": "expiryDate",
          "type": "uint256"
        },
        {
          "internalType": "string",
          "name": "precautions",
          "type": "string"
        },
        {
          "internalType": "string",
          "name": "chemicalComosition",
          "type": "string"
        }
      ],
      "stateMutability": "view",
      "type": "function",
      "constant": true
    },
    {
      "inputs": [
        {
          "internalType": "uint256",
          "name": "_medicineId",
          "type": "uint256"
        },
        {
          "internalType": "string",
          "name": "_precautions",
          "type": "string"
        }
      ],
      "name": "UpdatePrecautions",
      "outputs": [],
      "stateMutability": "nonpayable",
      "type": "function"
    },
    {
      "inputs": [
        {
          "internalType": "uint256",
          "name": "_medicineId",
          "type": "uint256"
        },
        {
          "internalType": "uint256",
          "name": "_warehouseId",
          "type": "uint256"
        }
      ],
      "name": "UpdateWarehouseDetails",
      "outputs": [],
      "stateMutability": "nonpayable",
      "type": "function"
    },
    {
      "inputs": [
        {
          "internalType": "uint256",
          "name": "_warehouseId",
          "type": "uint256"
        }
      ],
      "name": "getWarehouseDetails",
      "outputs": [
        {
          "internalType": "string",
          "name": "medicineName",
          "type": "string"
        },
        {
          "internalType": "string",
          "name": "manufacturingCompany",
          "type": "string"
        },
        {
          "internalType": "string",
          "name": "manufacturingPlace",
          "type": "string"
        },
        {
          "internalType": "uint256",
          "name": "expiryDate",
          "type": "uint256"
        },
        {
          "internalType": "string",
          "name": "precautions",
          "type": "string"
        },
        {
          "internalType": "string",
          "name": "chemicalComosition",
          "type": "string"
        },
        {
          "internalType": "uint256",
          "name": "warehouseReceivedDate",
          "type": "uint256"
        }
      ],
      "stateMutability": "view",
      "type": "function",
      "constant": true
    },
    {
      "inputs": [
        {
          "internalType": "uint256",
          "name": "_medicineId",
          "type": "uint256"
        },
        {
          "internalType": "uint256",
          "name": "_distributorId",
          "type": "uint256"
        }
      ],
      "name": "UpdateDistributorDetails",
      "outputs": [],
      "stateMutability": "nonpayable",
      "type": "function"
    },
    {
      "inputs": [
        {
          "internalType": "uint256",
          "name": "_medicineId",
          "type": "uint256"
        },
        {
          "internalType": "uint256",
          "name": "_shopId",
          "type": "uint256"
        }
      ],
      "name": "UpdateShopDetails",
      "outputs": [],
      "stateMutability": "nonpayable",
      "type": "function"
    },
    {
      "inputs": [
        {
          "internalType": "uint256",
          "name": "_medicineId",
          "type": "uint256"
        },
        {
          "internalType": "uint256",
          "name": "_customerSSN",
          "type": "uint256"
        }
      ],
      "name": "UpdateCustomerDetails",
      "outputs": [],
      "stateMutability": "nonpayable",
      "type": "function"
    }
  ],
  "bytecode": "0x608060405234801561001057600080fd5b50611507806100206000396000f3fe608060405234801561001057600080fd5b50600436106100885760003560e01c8063a3e430721161005b578063a3e4307214610116578063b62b581514610132578063e507c57d1461014e578063ef33dcd81461016a57610088565b80631dc439d51461008d5780634f907be7146100a95780635b8126df146100c5578063727cd48e146100e1575b600080fd5b6100a760048036038101906100a29190610d09565b6101a0565b005b6100c360048036038101906100be9190610d09565b6101f0565b005b6100df60048036038101906100da9190610e8f565b6102ea565b005b6100fb60048036038101906100f69190610eeb565b610311565b60405161010d96959493929190610faf565b60405180910390f35b610130600480360381019061012b9190610d09565b61066b565b005b61014c60048036038101906101479190611033565b610765565b005b61016860048036038101906101639190610d09565b610837565b005b610184600480360381019061017f9190610eeb565b610931565b6040516101979796959493929190611161565b60405180910390f35b806000808481526020019081526020016000206006018190555042600080848152602001908152602001600020600701819055508160016000838152602001908152602001600020819055505050565b8067ffffffffffffffff81111561020a57610209610d64565b5b6040519080825280601f01601f19166020018201604052801561023c5781602001600182028036833780820191505090505b50600080848152602001908152602001600020600c01908161025e91906113ff565b504267ffffffffffffffff81111561027957610278610d64565b5b6040519080825280601f01601f1916602001820160405280156102ab5781602001600182028036833780820191505090505b50600080848152602001908152602001600020600d0190816102cd91906113ff565b508160046000838152602001908152602001600020819055505050565b80600080848152602001908152602001600020600401908161030c91906113ff565b505050565b606080606060006060806000808881526020019081526020016000206000016000808981526020019081526020016000206001016000808a81526020019081526020016000206002016000808b8152602001908152602001600020600301546000808c81526020019081526020016000206004016000808d81526020019081526020016000206005018580546103a690611222565b80601f01602080910402602001604051908101604052809291908181526020018280546103d290611222565b801561041f5780601f106103f45761010080835404028352916020019161041f565b820191906000526020600020905b81548152906001019060200180831161040257829003601f168201915b5050505050955084805461043290611222565b80601f016020809104026020016040519081016040528092919081815260200182805461045e90611222565b80156104ab5780601f10610480576101008083540402835291602001916104ab565b820191906000526020600020905b81548152906001019060200180831161048e57829003601f168201915b505050505094508380546104be90611222565b80601f01602080910402602001604051908101604052809291908181526020018280546104ea90611222565b80156105375780601f1061050c57610100808354040283529160200191610537565b820191906000526020600020905b81548152906001019060200180831161051a57829003601f168201915b5050505050935081805461054a90611222565b80601f016020809104026020016040519081016040528092919081815260200182805461057690611222565b80156105c35780601f10610598576101008083540402835291602001916105c3565b820191906000526020600020905b8154815290600101906020018083116105a657829003601f168201915b505050505091508080546105d690611222565b80601f016020809104026020016040519081016040528092919081815260200182805461060290611222565b801561064f5780601f106106245761010080835404028352916020019161064f565b820191906000526020600020905b81548152906001019060200180831161063257829003601f168201915b5050505050905095509550955095509550955091939550919395565b8067ffffffffffffffff81111561068557610684610d64565b5b6040519080825280601f01601f1916602001820160405280156106b75781602001600182028036833780820191505090505b50600080848152602001908152602001600020600a0190816106d991906113ff565b504267ffffffffffffffff8111156106f4576106f3610d64565b5b6040519080825280601f01601f1916602001820160405280156107265781602001600182028036833780820191505090505b50600080848152602001908152602001600020600b01908161074891906113ff565b508160036000838152602001908152602001600020819055505050565b85600080898152602001908152602001600020600001908161078791906113ff565b508460008089815260200190815260200160002060010190816107aa91906113ff565b508360008089815260200190815260200160002060020190816107cd91906113ff565b50826000808981526020019081526020016000206003018190555081600080898152602001908152602001600020600401908161080a91906113ff565b5080600080898152602001908152602001600020600501908161082d91906113ff565b5050505050505050565b8067ffffffffffffffff81111561085157610850610d64565b5b6040519080825280601f01601f1916602001820160405280156108835781602001600182028036833780820191505090505b5060008084815260200190815260200160002060080190816108a591906113ff565b504267ffffffffffffffff8111156108c0576108bf610d64565b5b6040519080825280601f01601f1916602001820160405280156108f25781602001600182028036833780820191505090505b50600080848152602001908152602001600020600901908161091491906113ff565b508160026000838152602001908152602001600020819055505050565b60608060606000606080600080600160008a815260200190815260200160002054905060008082815260200190815260200160002060000160008083815260200190815260200160002060010160008084815260200190815260200160002060020160008085815260200190815260200160002060030154600080868152602001908152602001600020600401600080878152602001908152602001600020600501600080888152602001908152602001600020600701548680546109f590611222565b80601f0160208091040260200160405190810160405280929190818152602001828054610a2190611222565b8015610a6e5780601f10610a4357610100808354040283529160200191610a6e565b820191906000526020600020905b815481529060010190602001808311610a5157829003601f168201915b50505050509650858054610a8190611222565b80601f0160208091040260200160405190810160405280929190818152602001828054610aad90611222565b8015610afa5780601f10610acf57610100808354040283529160200191610afa565b820191906000526020600020905b815481529060010190602001808311610add57829003601f168201915b50505050509550848054610b0d90611222565b80601f0160208091040260200160405190810160405280929190818152602001828054610b3990611222565b8015610b865780601f10610b5b57610100808354040283529160200191610b86565b820191906000526020600020905b815481529060010190602001808311610b6957829003601f168201915b50505050509450828054610b9990611222565b80601f0160208091040260200160405190810160405280929190818152602001828054610bc590611222565b8015610c125780601f10610be757610100808354040283529160200191610c12565b820191906000526020600020905b815481529060010190602001808311610bf557829003601f168201915b50505050509250818054610c2590611222565b80601f0160208091040260200160405190810160405280929190818152602001828054610c5190611222565b8015610c9e5780601f10610c7357610100808354040283529160200191610c9e565b820191906000526020600020905b815481529060010190602001808311610c8157829003601f168201915b50505050509150975097509750975097509750975050919395979092949650565b6000604051905090565b600080fd5b600080fd5b6000819050919050565b610ce681610cd3565b8114610cf157600080fd5b50565b600081359050610d0381610cdd565b92915050565b60008060408385031215610d2057610d1f610cc9565b5b6000610d2e85828601610cf4565b9250506020610d3f85828601610cf4565b9150509250929050565b600080fd5b600080fd5b6000601f19601f8301169050919050565b7f4e487b7100000000000000000000000000000000000000000000000000000000600052604160045260246000fd5b610d9c82610d53565b810181811067ffffffffffffffff82111715610dbb57610dba610d64565b5b80604052505050565b6000610dce610cbf565b9050610dda8282610d93565b919050565b600067ffffffffffffffff821115610dfa57610df9610d64565b5b610e0382610d53565b9050602081019050919050565b82818337600083830152505050565b6000610e32610e2d84610ddf565b610dc4565b905082815260208101848484011115610e4e57610e4d610d4e565b5b610e59848285610e10565b509392505050565b600082601f830112610e7657610e75610d49565b5b8135610e86848260208601610e1f565b91505092915050565b60008060408385031215610ea657610ea5610cc9565b5b6000610eb485828601610cf4565b925050602083013567ffffffffffffffff811115610ed557610ed4610cce565b5b610ee185828601610e61565b9150509250929050565b600060208284031215610f0157610f00610cc9565b5b6000610f0f84828501610cf4565b91505092915050565b600081519050919050565b600082825260208201905092915050565b60005b83811015610f52578082015181840152602081019050610f37565b83811115610f61576000848401525b50505050565b6000610f7282610f18565b610f7c8185610f23565b9350610f8c818560208601610f34565b610f9581610d53565b840191505092915050565b610fa981610cd3565b82525050565b600060c0820190508181036000830152610fc98189610f67565b90508181036020830152610fdd8188610f67565b90508181036040830152610ff18187610f67565b90506110006060830186610fa0565b81810360808301526110128185610f67565b905081810360a08301526110268184610f67565b9050979650505050505050565b600080600080600080600060e0888a03121561105257611051610cc9565b5b60006110608a828b01610cf4565b975050602088013567ffffffffffffffff81111561108157611080610cce565b5b61108d8a828b01610e61565b965050604088013567ffffffffffffffff8111156110ae576110ad610cce565b5b6110ba8a828b01610e61565b955050606088013567ffffffffffffffff8111156110db576110da610cce565b5b6110e78a828b01610e61565b94505060806110f88a828b01610cf4565b93505060a088013567ffffffffffffffff81111561111957611118610cce565b5b6111258a828b01610e61565b92505060c088013567ffffffffffffffff81111561114657611145610cce565b5b6111528a828b01610e61565b91505092959891949750929550565b600060e082019050818103600083015261117b818a610f67565b9050818103602083015261118f8189610f67565b905081810360408301526111a38188610f67565b90506111b26060830187610fa0565b81810360808301526111c48186610f67565b905081810360a08301526111d88185610f67565b90506111e760c0830184610fa0565b98975050505050505050565b7f4e487b7100000000000000000000000000000000000000000000000000000000600052602260045260246000fd5b6000600282049050600182168061123a57607f821691505b60208210810361124d5761124c6111f3565b5b50919050565b60008190508160005260206000209050919050565b60006020601f8301049050919050565b600082821b905092915050565b6000600883026112b57fffffffffffffffffffffffffffffffffffffffffffffffffffffffffffffffff82611278565b6112bf8683611278565b95508019841693508086168417925050509392505050565b6000819050919050565b60006112fc6112f76112f284610cd3565b6112d7565b610cd3565b9050919050565b6000819050919050565b611316836112e1565b61132a61132282611303565b848454611285565b825550505050565b600090565b61133f611332565b61134a81848461130d565b505050565b5b8181101561136e57611363600082611337565b600181019050611350565b5050565b601f8211156113b35761138481611253565b61138d84611268565b8101602085101561139c578190505b6113b06113a885611268565b83018261134f565b50505b505050565b600082821c905092915050565b60006113d6600019846008026113b8565b1980831691505092915050565b60006113ef83836113c5565b9150826002028217905092915050565b61140882610f18565b67ffffffffffffffff81111561142157611420610d64565b5b61142b8254611222565b611436828285611372565b600060209050601f8311600181146114695760008415611457578287015190505b61146185826113e3565b8655506114c9565b601f19841661147786611253565b60005b8281101561149f5784890151825560018201915060208501945060208101905061147a565b868310156114bc57848901516114b8601f8916826113c5565b8355505b6001600288020188555050505b50505050505056fea26469706673582212205b7b0f0cf30c4d79aa39f1f40f4ef0f1d5f7e65691278c8816152f4718747bdd64736f6c634300080f0033",
  "immutableReferences": {},
  "source": "// SPDX-License-Identifier: MIT\npragma solidity >=0.7.0 <0.9.0;\n\ncontract MedicineContract {\n\n   struct medicine {  \n        string medicineName;\n        string manufacturingCompany;\n        string manufacturingPlace;\n        uint expiryDate;\n        string precautions;\n        string chemicalComosition;\n        uint warehouseId;\n        uint warehouseReceivedDate;\n        string distributorId;\n        string distributorReceivedDate;\n        string shopId;\n        string shopReceivedDate;\n        string customerSSN;\n        string customerReceivedDate;\n    }\n\n\n    mapping (uint => medicine ) m_info;\n    mapping(uint=> uint) getMedicineIdFromWarehouseId;\n    mapping(uint=> uint) getMedicineIdFromDistributorId;\n    mapping(uint=> uint) getMedicineIdFromShopId;\n    mapping(uint=> uint) getMedicineIdFromCustomerSSN;\n\n    function addMedicineInfo (uint _medicineId, string memory _medicineName, \n                    string memory _manufacturingCompany,string memory _manufacturingPlace ,\n                    uint _expiryDate , string memory  _precautions,\n                    string memory _chemicalComosition) public  {\n        \n    m_info[_medicineId].medicineName=_medicineName;\n    m_info[_medicineId].manufacturingCompany=_manufacturingCompany;\n    m_info[_medicineId].manufacturingPlace=_manufacturingPlace;\n    m_info[_medicineId].expiryDate=_expiryDate;\n    m_info[_medicineId].precautions=_precautions;\n    m_info[_medicineId].chemicalComosition=_chemicalComosition;\n    }\n\nfunction getMedicineInfo(uint  _medicineId) public view returns(string memory medicineName,\n    string memory manufacturingCompany,string memory  manufacturingPlace ,\n    uint expiryDate , string memory precautions, string memory chemicalComosition//,\n    //string memory warehouseReceivedDate ,string memory distributorReceivedDate ,\n    //string memory shopReceivedDate ,string memory customerReceivedDate\n    ){\n        return(m_info[_medicineId].medicineName,\n         m_info[_medicineId].manufacturingCompany,\n         m_info[_medicineId].manufacturingPlace,\n         m_info[_medicineId].expiryDate,\n         m_info[_medicineId].precautions,\n        m_info[_medicineId].chemicalComosition//,\n         //m_info[_medicineId].warehouseReceivedDate, \n        // m_info[_medicineId].distributorReceivedDate,\n        // m_info[_medicineId].shopReceivedDate,\n        //  m_info[_medicineId].customerReceivedDate\n        );\n    }\n    \n    function UpdatePrecautions( uint _medicineId,string memory  _precautions ) public {\n        m_info[_medicineId].precautions = _precautions;\n    }\n\n    function UpdateWarehouseDetails( uint _medicineId,uint  _warehouseId ) public {\n        m_info[_medicineId].warehouseId=_warehouseId;\n        m_info[_medicineId].warehouseReceivedDate = block.timestamp;\n        getMedicineIdFromWarehouseId[_warehouseId]=_medicineId;\n    }\n\nfunction getWarehouseDetails(uint  _warehouseId) public view returns(string memory medicineName,\n    string memory manufacturingCompany,string memory  manufacturingPlace ,\n    uint expiryDate , string memory precautions, string memory chemicalComosition,\n    uint warehouseReceivedDate\n    ){\n        uint _medicineId=getMedicineIdFromWarehouseId[_warehouseId];\n        return(m_info[_medicineId].medicineName,\n         m_info[_medicineId].manufacturingCompany,\n         m_info[_medicineId].manufacturingPlace,\n         m_info[_medicineId].expiryDate,\n         m_info[_medicineId].precautions,\n        m_info[_medicineId].chemicalComosition,\n         m_info[_medicineId].warehouseReceivedDate\n        );\n    }\n\n    function UpdateDistributorDetails( uint _medicineId,uint _distributorId ) public {\n        m_info[_medicineId].distributorId=string(new bytes(_distributorId));\n        m_info[_medicineId].distributorReceivedDate = string(new bytes(block.timestamp));\n        getMedicineIdFromDistributorId[_distributorId]=_medicineId;\n    }\n    function UpdateShopDetails( uint _medicineId,uint _shopId ) public {\n        m_info[_medicineId].shopId=string(new bytes(_shopId));\n        m_info[_medicineId].shopReceivedDate = string(new bytes(block.timestamp));\n        getMedicineIdFromShopId[_shopId]=_medicineId;\n    }\n\n    function UpdateCustomerDetails( uint _medicineId,uint _customerSSN) public {\n        m_info[_medicineId].customerSSN=string(new bytes(_customerSSN));\n        m_info[_medicineId].customerReceivedDate = string(new bytes(block.timestamp));\n        getMedicineIdFromCustomerSSN[_customerSSN]=_medicineId;\n    }\n\n}\n\n",
  "sourcePath": "/home/mrin/Truffle-Project/contracts/MedicineContract.sol",
  "compiler": {
    "name": "solc",
    "version": "0.8.15+commit.e14f2714.Emscripten.clang"
  },
  "schemaVersion": "3.4.8",
  "updatedAt": "2022-07-12T18:45:00.187Z",
  "networkType": "ethereum",
  "devdoc": {
    "kind": "dev",
    "methods": {},
    "version": 1
  },
  "userdoc": {
    "kind": "user",
    "methods": {},
    "version": 1
  }
}